{
  "contractName": "ShieldedPII",
  "abi": [
    {
      "constant": true,
      "inputs": [
        {
          "name": "",
          "type": "uint256"
        }
      ],
      "name": "patients",
      "outputs": [
        {
          "name": "id",
          "type": "uint256"
        },
        {
          "name": "name",
          "type": "string"
        },
        {
          "name": "ssn",
          "type": "uint256"
        },
        {
          "name": "address_",
          "type": "string"
        },
        {
          "name": "dob",
          "type": "string"
        },
        {
          "name": "insuranceID",
          "type": "uint256"
        }
      ],
      "payable": false,
      "stateMutability": "view",
      "type": "function",
      "signature": "0x93119a83"
    },
    {
      "constant": true,
      "inputs": [],
      "name": "patientIDCount",
      "outputs": [
        {
          "name": "",
          "type": "uint256"
        }
      ],
      "payable": false,
      "stateMutability": "view",
      "type": "function",
      "signature": "0xe69b9852"
    },
    {
      "inputs": [],
      "payable": false,
      "stateMutability": "nonpayable",
      "type": "constructor",
      "signature": "constructor"
    },
    {
      "constant": false,
      "inputs": [
        {
          "name": "_name",
          "type": "string"
        },
        {
          "name": "_ssn",
          "type": "uint256"
        },
        {
          "name": "_address",
          "type": "string"
        },
        {
          "name": "_dob",
          "type": "string"
        },
        {
          "name": "_healthHist",
          "type": "string[]"
        },
        {
          "name": "_insuranceID",
          "type": "uint256"
        }
      ],
      "name": "registerPatient",
      "outputs": [],
      "payable": false,
      "stateMutability": "nonpayable",
      "type": "function",
      "signature": "0x89b2b9d1"
    },
    {
      "constant": false,
      "inputs": [
        {
          "name": "_id",
          "type": "uint256"
        }
      ],
      "name": "unregisterPatient",
      "outputs": [],
      "payable": false,
      "stateMutability": "nonpayable",
      "type": "function",
      "signature": "0x085fe434"
    },
    {
      "constant": false,
      "inputs": [
        {
          "name": "_id",
          "type": "uint256"
        },
        {
          "name": "_name",
          "type": "string"
        }
      ],
      "name": "updateName",
      "outputs": [],
      "payable": false,
      "stateMutability": "nonpayable",
      "type": "function",
      "signature": "0x53e76f2c"
    },
    {
      "constant": false,
      "inputs": [
        {
          "name": "_id",
          "type": "uint256"
        },
        {
          "name": "_ssn",
          "type": "uint256"
        }
      ],
      "name": "updateSSN",
      "outputs": [],
      "payable": false,
      "stateMutability": "nonpayable",
      "type": "function",
      "signature": "0x659b2940"
    },
    {
      "constant": false,
      "inputs": [
        {
          "name": "_id",
          "type": "uint256"
        },
        {
          "name": "_address",
          "type": "string"
        }
      ],
      "name": "updateAddress",
      "outputs": [],
      "payable": false,
      "stateMutability": "nonpayable",
      "type": "function",
      "signature": "0x76c5f560"
    },
    {
      "constant": false,
      "inputs": [
        {
          "name": "_id",
          "type": "uint256"
        },
        {
          "name": "_dob",
          "type": "string"
        }
      ],
      "name": "updateDOB",
      "outputs": [],
      "payable": false,
      "stateMutability": "nonpayable",
      "type": "function",
      "signature": "0xe56ee63c"
    },
    {
      "constant": false,
      "inputs": [
        {
          "name": "_id",
          "type": "uint256"
        },
        {
          "name": "_healthHist",
          "type": "string[]"
        }
      ],
      "name": "updateHealthHist",
      "outputs": [],
      "payable": false,
      "stateMutability": "nonpayable",
      "type": "function",
      "signature": "0x42bd2e60"
    },
    {
      "constant": false,
      "inputs": [
        {
          "name": "_id",
          "type": "uint256"
        },
        {
          "name": "_insuranceID",
          "type": "uint256"
        }
      ],
      "name": "updateInsuranceID",
      "outputs": [],
      "payable": false,
      "stateMutability": "nonpayable",
      "type": "function",
      "signature": "0x4f333e34"
    },
    {
      "constant": true,
      "inputs": [
        {
          "name": "_id",
          "type": "uint256"
        }
      ],
      "name": "getPatientName",
      "outputs": [
        {
          "name": "",
          "type": "string"
        }
      ],
      "payable": false,
      "stateMutability": "view",
      "type": "function",
      "signature": "0xd142c3d3"
    },
    {
      "constant": true,
      "inputs": [
        {
          "name": "_id",
          "type": "uint256"
        }
      ],
      "name": "getPatientSSN",
      "outputs": [
        {
          "name": "",
          "type": "uint256"
        }
      ],
      "payable": false,
      "stateMutability": "view",
      "type": "function",
      "signature": "0xcc85606f"
    },
    {
      "constant": true,
      "inputs": [
        {
          "name": "_id",
          "type": "uint256"
        }
      ],
      "name": "getPatientAddress",
      "outputs": [
        {
          "name": "",
          "type": "string"
        }
      ],
      "payable": false,
      "stateMutability": "view",
      "type": "function",
      "signature": "0x097ee8cd"
    },
    {
      "constant": true,
      "inputs": [
        {
          "name": "_id",
          "type": "uint256"
        }
      ],
      "name": "getPatientDOB",
      "outputs": [
        {
          "name": "",
          "type": "string"
        }
      ],
      "payable": false,
      "stateMutability": "view",
      "type": "function",
      "signature": "0x98f8a996"
    },
    {
      "constant": true,
      "inputs": [
        {
          "name": "_id",
          "type": "uint256"
        }
      ],
      "name": "getPatientHealthHist",
      "outputs": [
        {
          "name": "",
          "type": "string[]"
        }
      ],
      "payable": false,
      "stateMutability": "view",
      "type": "function",
      "signature": "0xf8956795"
    },
    {
      "constant": true,
      "inputs": [
        {
          "name": "_id",
          "type": "uint256"
        }
      ],
      "name": "getPatientInsuranceID",
      "outputs": [
        {
          "name": "",
          "type": "uint256"
        }
      ],
      "payable": false,
      "stateMutability": "view",
      "type": "function",
      "signature": "0x1dbdae55"
    },
    {
      "constant": false,
      "inputs": [
        {
          "name": "_id",
          "type": "uint256"
        },
        {
          "name": "_history",
          "type": "string"
        }
      ],
      "name": "addPatientHistory",
      "outputs": [],
      "payable": false,
      "stateMutability": "nonpayable",
      "type": "function",
      "signature": "0x3d74a12c"
    }
  ],
  "bytecode": "0x6080604052620a060360025534801561001757600080fd5b5033600160006101000a81548173ffffffffffffffffffffffffffffffffffffffff021916908373ffffffffffffffffffffffffffffffffffffffff16021790555061183d806100686000396000f3fe6080604052600436106100f1576000357c0100000000000000000000000000000000000000000000000000000000900463ffffffff168063085fe434146100f6578063097ee8cd1461011f5780631dbdae551461015c5780633d74a12c1461019957806342bd2e60146101c25780634f333e34146101eb57806353e76f2c14610214578063659b29401461023d57806376c5f5601461026657806389b2b9d11461028f57806393119a83146102b857806398f8a996146102fa578063cc85606f14610337578063d142c3d314610374578063e56ee63c146103b1578063e69b9852146103da578063f895679514610405575b600080fd5b34801561010257600080fd5b5061011d600480360361011891908101906113e9565b610442565b005b34801561012b57600080fd5b50610146600480360361014191908101906113e9565b610510565b6040516101539190611601565b60405180910390f35b34801561016857600080fd5b50610183600480360361017e91908101906113e9565b6105c7565b6040516101909190611623565b60405180910390f35b3480156101a557600080fd5b506101c060048036036101bb9190810190611466565b6105e6565b005b3480156101ce57600080fd5b506101e960048036036101e49190810190611412565b61063c565b005b3480156101f757600080fd5b50610212600480360361020d91908101906114ba565b6106c8565b005b34801561022057600080fd5b5061023b60048036036102369190810190611466565b610744565b005b34801561024957600080fd5b50610264600480360361025f91908101906114ba565b6107d0565b005b34801561027257600080fd5b5061028d60048036036102889190810190611466565b61084c565b005b34801561029b57600080fd5b506102b660048036036102b19190810190611300565b6108d8565b005b3480156102c457600080fd5b506102df60048036036102da91908101906113e9565b610a2f565b6040516102f19695949392919061163e565b60405180910390f35b34801561030657600080fd5b50610321600480360361031c91908101906113e9565b610c33565b60405161032e9190611601565b60405180910390f35b34801561034357600080fd5b5061035e600480360361035991908101906113e9565b610cea565b60405161036b9190611623565b60405180910390f35b34801561038057600080fd5b5061039b600480360361039691908101906113e9565b610d09565b6040516103a89190611601565b60405180910390f35b3480156103bd57600080fd5b506103d860048036036103d39190810190611466565b610dc0565b005b3480156103e657600080fd5b506103ef610e4c565b6040516103fc9190611623565b60405180910390f35b34801561041157600080fd5b5061042c600480360361042791908101906113e9565b610e52565b60405161043991906115df565b60405180910390f35b600160009054906101000a900473ffffffffffffffffffffffffffffffffffffffff168073ffffffffffffffffffffffffffffffffffffffff163373ffffffffffffffffffffffffffffffffffffffff1614151561049f57600080fd5b6000808381526020019081526020016000206000808201600090556001820160006104ca9190610f50565b60028201600090556003820160006104e29190610f50565b6004820160006104f29190610f50565b6005820160006105029190610f98565b600682016000905550505050565b60606000808381526020019081526020016000206003018054600181600116156101000203166002900480601f0160208091040260200160405190810160405280929190818152602001828054600181600116156101000203166002900480156105bb5780601f10610590576101008083540402835291602001916105bb565b820191906000526020600020905b81548152906001019060200180831161059e57829003601f168201915b50505050509050919050565b6000806000838152602001908152602001600020600601549050919050565b600080838152602001908152602001600020600501819080600181540180825580915050906001820390600052602060002001600090919290919091509080519060200190610636929190610fb9565b50505050565b600160009054906101000a900473ffffffffffffffffffffffffffffffffffffffff168073ffffffffffffffffffffffffffffffffffffffff163373ffffffffffffffffffffffffffffffffffffffff1614151561069957600080fd5b8160008085815260200190815260200160002060050190805190602001906106c2929190611039565b50505050565b600160009054906101000a900473ffffffffffffffffffffffffffffffffffffffff168073ffffffffffffffffffffffffffffffffffffffff163373ffffffffffffffffffffffffffffffffffffffff1614151561072557600080fd5b8160008085815260200190815260200160002060060181905550505050565b600160009054906101000a900473ffffffffffffffffffffffffffffffffffffffff168073ffffffffffffffffffffffffffffffffffffffff163373ffffffffffffffffffffffffffffffffffffffff161415156107a157600080fd5b8160008085815260200190815260200160002060010190805190602001906107ca929190610fb9565b50505050565b600160009054906101000a900473ffffffffffffffffffffffffffffffffffffffff168073ffffffffffffffffffffffffffffffffffffffff163373ffffffffffffffffffffffffffffffffffffffff1614151561082d57600080fd5b8160008085815260200190815260200160002060020181905550505050565b600160009054906101000a900473ffffffffffffffffffffffffffffffffffffffff168073ffffffffffffffffffffffffffffffffffffffff163373ffffffffffffffffffffffffffffffffffffffff161415156108a957600080fd5b8160008085815260200190815260200160002060030190805190602001906108d2929190610fb9565b50505050565b600160009054906101000a900473ffffffffffffffffffffffffffffffffffffffff168073ffffffffffffffffffffffffffffffffffffffff163373ffffffffffffffffffffffffffffffffffffffff1614151561093557600080fd5b60e06040519081016040528060025481526020018881526020018781526020018681526020018581526020018481526020018381525060008060025481526020019081526020016000206000820151816000015560208201518160010190805190602001906109a5929190611099565b506040820151816002015560608201518160030190805190602001906109cc929190611099565b5060808201518160040190805190602001906109e9929190611099565b5060a0820151816005019080519060200190610a06929190611119565b5060c0820151816006015590505060026000815480929190600101919050555050505050505050565b6000602052806000526040600020600091509050806000015490806001018054600181600116156101000203166002900480601f016020809104026020016040519081016040528092919081815260200182805460018160011615610100020316600290048015610ae15780601f10610ab657610100808354040283529160200191610ae1565b820191906000526020600020905b815481529060010190602001808311610ac457829003601f168201915b505050505090806002015490806003018054600181600116156101000203166002900480601f016020809104026020016040519081016040528092919081815260200182805460018160011615610100020316600290048015610b855780601f10610b5a57610100808354040283529160200191610b85565b820191906000526020600020905b815481529060010190602001808311610b6857829003601f168201915b505050505090806004018054600181600116156101000203166002900480601f016020809104026020016040519081016040528092919081815260200182805460018160011615610100020316600290048015610c235780601f10610bf857610100808354040283529160200191610c23565b820191906000526020600020905b815481529060010190602001808311610c0657829003601f168201915b5050505050908060060154905086565b60606000808381526020019081526020016000206004018054600181600116156101000203166002900480601f016020809104026020016040519081016040528092919081815260200182805460018160011615610100020316600290048015610cde5780601f10610cb357610100808354040283529160200191610cde565b820191906000526020600020905b815481529060010190602001808311610cc157829003601f168201915b50505050509050919050565b6000806000838152602001908152602001600020600201549050919050565b60606000808381526020019081526020016000206001018054600181600116156101000203166002900480601f016020809104026020016040519081016040528092919081815260200182805460018160011615610100020316600290048015610db45780601f10610d8957610100808354040283529160200191610db4565b820191906000526020600020905b815481529060010190602001808311610d9757829003601f168201915b50505050509050919050565b600160009054906101000a900473ffffffffffffffffffffffffffffffffffffffff168073ffffffffffffffffffffffffffffffffffffffff163373ffffffffffffffffffffffffffffffffffffffff16141515610e1d57600080fd5b816000808581526020019081526020016000206004019080519060200190610e46929190610fb9565b50505050565b60025481565b6060600080838152602001908152602001600020600501805480602002602001604051908101604052809291908181526020016000905b82821015610f45578382906000526020600020018054600181600116156101000203166002900480601f016020809104026020016040519081016040528092919081815260200182805460018160011615610100020316600290048015610f315780601f10610f0657610100808354040283529160200191610f31565b820191906000526020600020905b815481529060010190602001808311610f1457829003601f168201915b505050505081526020019060010190610e89565b505050509050919050565b50805460018160011615610100020316600290046000825580601f10610f765750610f95565b601f016020900490600052602060002090810190610f949190611179565b5b50565b5080546000825590600052602060002090810190610fb6919061119e565b50565b828054600181600116156101000203166002900490600052602060002090601f016020900481019282601f10610ffa57805160ff1916838001178555611028565b82800160010185558215611028579182015b8281111561102757825182559160200191906001019061100c565b5b5090506110359190611179565b5090565b828054828255906000526020600020908101928215611088579160200282015b82811115611087578251829080519060200190611077929190611099565b5091602001919060010190611059565b5b509050611095919061119e565b5090565b828054600181600116156101000203166002900490600052602060002090601f016020900481019282601f106110da57805160ff1916838001178555611108565b82800160010185558215611108579182015b828111156111075782518255916020019190600101906110ec565b5b5090506111159190611179565b5090565b828054828255906000526020600020908101928215611168579160200282015b82811115611167578251829080519060200190611157929190611099565b5091602001919060010190611139565b5b509050611175919061119e565b5090565b61119b91905b8082111561119757600081600090555060010161117f565b5090565b90565b6111c791905b808211156111c357600081816111ba9190610f50565b506001016111a4565b5090565b90565b600082601f83011215156111dd57600080fd5b81356111f06111eb826116e1565b6116b4565b9150818183526020840193506020810190508360005b83811015611236578135860161121c8882611240565b845260208401935060208301925050600181019050611206565b5050505092915050565b600082601f830112151561125357600080fd5b813561126661126182611709565b6116b4565b9150808252602083016020830185838301111561128257600080fd5b61128d8382846117b0565b50505092915050565b600082601f83011215156112a957600080fd5b81356112bc6112b782611735565b6116b4565b915080825260208301602083018583830111156112d857600080fd5b6112e38382846117b0565b50505092915050565b60006112f882356117a6565b905092915050565b60008060008060008060c0878903121561131957600080fd5b600087013567ffffffffffffffff81111561133357600080fd5b61133f89828a01611296565b965050602061135089828a016112ec565b955050604087013567ffffffffffffffff81111561136d57600080fd5b61137989828a01611296565b945050606087013567ffffffffffffffff81111561139657600080fd5b6113a289828a01611296565b935050608087013567ffffffffffffffff8111156113bf57600080fd5b6113cb89828a016111ca565b92505060a06113dc89828a016112ec565b9150509295509295509295565b6000602082840312156113fb57600080fd5b6000611409848285016112ec565b91505092915050565b6000806040838503121561142557600080fd5b6000611433858286016112ec565b925050602083013567ffffffffffffffff81111561145057600080fd5b61145c858286016111ca565b9150509250929050565b6000806040838503121561147957600080fd5b6000611487858286016112ec565b925050602083013567ffffffffffffffff8111156114a457600080fd5b6114b085828601611296565b9150509250929050565b600080604083850312156114cd57600080fd5b60006114db858286016112ec565b92505060206114ec858286016112ec565b9150509250929050565b60006115018261176e565b8084526020840193508360208202850161151a85611761565b60005b8481101561155357838303885261153583835161159a565b92506115408261178f565b915060208801975060018101905061151d565b508196508694505050505092915050565b600061156f82611784565b8084526115838160208601602086016117bf565b61158c816117f2565b602085010191505092915050565b60006115a582611779565b8084526115b98160208601602086016117bf565b6115c2816117f2565b602085010191505092915050565b6115d98161179c565b82525050565b600060208201905081810360008301526115f981846114f6565b905092915050565b6000602082019050818103600083015261161b8184611564565b905092915050565b600060208201905061163860008301846115d0565b92915050565b600060c08201905061165360008301896115d0565b8181036020830152611665818861159a565b905061167460408301876115d0565b8181036060830152611686818661159a565b9050818103608083015261169a818561159a565b90506116a960a08301846115d0565b979650505050505050565b6000604051905081810181811067ffffffffffffffff821117156116d757600080fd5b8060405250919050565b600067ffffffffffffffff8211156116f857600080fd5b602082029050602081019050919050565b600067ffffffffffffffff82111561172057600080fd5b601f19601f8301169050602081019050919050565b600067ffffffffffffffff82111561174c57600080fd5b601f19601f8301169050602081019050919050565b6000602082019050919050565b600081519050919050565b600081519050919050565b600081519050919050565b6000602082019050919050565b6000819050919050565b6000819050919050565b82818337600083830152505050565b60005b838110156117dd5780820151818401526020810190506117c2565b838111156117ec576000848401525b50505050565b6000601f19601f830116905091905056fea265627a7a72305820dc496707b6a37a1c411ba00f132875a664c03ff5e47f0cd5eea49476775d78d36c6578706572696d656e74616cf50037",
  "source": "pragma solidity ^0.5.0;\npragma experimental \"ABIEncoderV2\";\n\n\ncontract ShieldedPII{\n     \n    // Model a Patient\n     struct Patient {\n        uint id;\n        string name;\n        uint ssn;\n        string address_;\n        string dob;\n        string[] health_hist;\n        uint insuranceID;\n    }\n    \n    mapping (uint => Patient) public patients;\n    address chairPerson;\n    uint public patientIDCount = 656899;\n    \n    constructor () public{\n        chairPerson = msg.sender;\n    }\n    \n    modifier onlyBy(address _account){\n        require(msg.sender == _account);\n        _;            \n    }\n\n    function registerPatient(string memory _name, uint _ssn, string memory _address, string memory _dob, string[] memory _healthHist, uint _insuranceID) public onlyBy(chairPerson){\n        patients[patientIDCount] = Patient(patientIDCount, _name, _ssn, _address, _dob, _healthHist, _insuranceID);\n        patientIDCount ++;\n    }\n    \n    function unregisterPatient(uint _id) public onlyBy(chairPerson) {\n        delete patients[_id];\n    }\n    \n    \n    //Update functions -- By admin only\n    function updateName(uint _id, string memory _name) public onlyBy(chairPerson){\n        patients[_id].name = _name;\n    }\n    function updateSSN(uint _id, uint _ssn) public onlyBy(chairPerson){\n        patients[_id].ssn = _ssn;\n    }\n    function updateAddress(uint _id, string memory _address) public onlyBy(chairPerson){\n        patients[_id].address_ = _address;\n    }\n    function updateDOB(uint _id, string memory _dob) public onlyBy(chairPerson){\n        patients[_id].dob = _dob;\n    }\n    function updateHealthHist(uint _id, string[] memory _healthHist) public onlyBy(chairPerson){\n        patients[_id].health_hist = _healthHist;\n    }\n    function updateInsuranceID(uint _id, uint _insuranceID) public onlyBy(chairPerson){\n        patients[_id].insuranceID = _insuranceID;\n    }\n\n    \n    //Get functions for Medical Providers/Doctors\n    function getPatientName(uint _id) public view returns (string memory) {\n       return patients[_id].name;\n    }\n    function getPatientSSN(uint _id) public view returns (uint)  {\n       return patients[_id].ssn;\n    }\n    function getPatientAddress(uint _id) public view returns (string memory)  {\n       return patients[_id].address_;\n    }\n    function getPatientDOB(uint _id) public view returns (string memory)  {\n       return patients[_id].dob;\n    }\n    function getPatientHealthHist(uint _id) public view returns (string[] memory)  {\n       return patients[_id].health_hist;\n    }\n    function getPatientInsuranceID(uint _id) public view returns (uint)  {\n       return patients[_id].insuranceID;\n    }\n    \n    function addPatientHistory (uint _id, string memory _history) public {\n        patients[_id].health_hist.push(_history);\n    }\n    \n\n    \n    \n    \n}",
  "sourcePath": "/Users/shen/ws/BuildathonBlockchainUB2019/contracts/ShieldedPII.sol",
  "compiler": {
    "name": "solc",
    "version": "0.5.0+commit.1d4f565a.Emscripten.clang"
  },
  "schemaVersion": "3.0.2",
  "updatedAt": "2019-04-13T18:23:44.912Z",
  "devdoc": {
    "methods": {}
  },
  "userdoc": {
    "methods": {}
  }
}